:100000000C9462000C948A000C948A000C948A0070
:100010000C948A000C948A000C948A000C948A0038
:100020000C948A000C9498170C948A000C948A0003
:100030000C948A000C94D0110C948A000C948A00C1
:100040000C948A000C948A000C943F160C946B1745
:100050000C948A000C948A000C948A000C948A00F8
:100060000C948A000C948A0007634236B79BD8A789
:100070001A39685618AEBAAB558C1D3CB7CC5763CD
:10008000BD6DEDFD753EF6177231BF000000803F7B
:10009000524541445921006233323E6133323E675A
:1000A00033323E6633323E6533323E6433323E6332
:1000B0003332006333323E6433323E633332000006
:1000C0007D187E1811241FBECFEFD8E0DEBFCDBF54
:1000D00012E0A0E0B1E0E4E0F5E402C005900D928A
:1000E000A431B107D9F712E0A4E1B2E001C01D923A
:1000F000AC39B107E1F710E0C2ECD0E004C02297C0
:10010000FE010E943521C03CD107C9F70E94340E80
:100110000C9475220C940000809100018F5F8093F5
:1001200000010895ACE0B0E0E8E9F0E00C94F120C3
:100130009A8389831B015C874B8748015901CA0157
:10014000880F991F6817790728F49B013695279522
:100150003C872B87EB85FC85BF0180E090E00E9407
:10016000AC1E6B837C838D839E8329813A81B90188
:1001700080E090E00E94AC1E2B013C012B813C8171
:100180004D815E810E940F1E1816ACF5B1018B8562
:100190009C85681B790B80E090E00E94AC1E6F8309
:1001A000788789879A87E981FA812B853C852E1784
:1001B0003F0778F49B01AC01C301B2010E940F1EFE
:1001C00087FF07C0A501940160E070E080E490E43F
:1001D0002AC02F81388549855A85C301B2010E9402
:1001E000AA1D9B01AC016B817C818D819E810E9447
:1001F000AA1D2B013C016B857C85660F771F80E073
:1002000090E00E94AC1E9B01AC0160E070E080ECCD
:1002100090E40E94131E9B01AC01C301B2010E9435
:10022000F31FA50194010E94AA1D9B01AC019058E7
:100230000E94F31F20E030E040E05FE30E94F31FE4
:10024000A70196010E94F31FA70196010E94F31FC8
:100250000E94801E4B015C0124ED31E44CEC5EE316
:10026000C701B6010E94F31FA50194010E94F31F6C
:1002700020E030E040E250E40E94F31F2C96E2E1DF
:100280000C940D21A0E0B0E0E8E4F1E00C94F32040
:10029000EC0149015A0167017801AB015695479578
:1002A000BA0180E090E00E94AC1E2B013C01BE012F
:1002B00080E090E00E94AC1EA30192010E94AA1D62
:1002C00022E830E149EC50E40E94F31FA3019201BF
:1002D0000E94131EA50194010E94AA1D9B01AC015E
:1002E0000E94F31F4B015C01B7FAB094B7F8B094C9
:1002F000A7019601C701B6010E94F31F9B01AC0143
:100300000E94AB1D9B01AC01C501B4010E94131EEC
:100310000E94801E4B015C012CED3CE640E250E463
:10032000C701B6010E94F31F9B01AC01C501B401D6
:100330000E94131E22E731EE4DEF50E40E94131E7F
:10034000CDB7DEB7E0E10C940F21A3E9B0E0EBEA12
:10035000F1E00C94FF208C0181E8F801DE01119698
:1003600001900D928A95E1F784E090E0CE57DF4F3F
:1003700099838883C258D040CC57DF4F19821882A6
:10038000C458D040CA57DF4F19821882C658D0408F
:100390008FE090E0C857DF4F99838883C858D040DA
:1003A00088EC92E3C657DF4F99838883CA58D040C0
:1003B00081E090E0C457DF4F99838883CC58D040C8
:1003C00020EF30E0C257DF4F39832883CE58D0402A
:1003D000C057DF4F19821882C059D040CE56DF4F28
:1003E00019821882C259D040F801E858FF4F918312
:1003F000808320E040E150E060E970E0C8010E94A5
:100400003F06C8010E94EA0520E040E150E060E9B3
:1004100070E0C8010E943F060E94481360E080E03F
:100420000E94F31388E491E00E945F1361E080E092
:100430000E94F31381E591E00E945F13CE010196C3
:100440000E945707C8010E94F70687E990E00E94C2
:100450002F12CD56DF4FE4E00C941B21CF93DF9396
:10046000CDB7DEB7C15DD1400FB6F894DEBF0FBE89
:10047000CDBF8C01198288E090E09B838A8385E060
:1004800090E09D838C8383E090E09F838E838EE554
:1004900091E09987888781E8F801DE011A9601903A
:1004A0000D928A95E1F785E5C353DE4F8883CD5CD5
:1004B000D14082E5C253DE4F8883CE5CD14084E4D4
:1004C000C153DE4F8883CF5CD1408CE4C053DE4FF4
:1004D0008883C05DD140CF52DE4F1882C15DD140CC
:1004E000C557DF4F19821882CB58D040C357DF4F12
:1004F00019821882CD58D0408CE090E0C157DF4F70
:1005000099838883CF58D04080E29EE4CF56DF4F56
:1005100099838883C159D04081E090E0CD56DF4F68
:1005200099838883C359D04085EA90E0CB56DF4F4A
:1005300099838883C559D040C956DF4F19821882E4
:10054000C759D040C756DF4F19821882C959D040C9
:10055000C753DE4F19821882C95CD140C553DE4FA4
:1005600019821882CB5CD1400E94481360E080E081
:100570000E94F3138AE591E00E945F1361E080E03E
:100580000E94F31382E691E00E945F13812C912C6C
:1005900054018394640181E0C81AD10882E00E946A
:1005A0002B15811133C080E20E942B1581112EC0C2
:1005B00080E10E942B15882389F30E94481360E094
:1005C00080E00E94F3138AE591E00E945F1361E0EE
:1005D00080E00E94F3138BE691E00E945F13C50157
:1005E000B4010E94CD138EE691E00E945F1380E17A
:1005F0000E942B158111FBCF84E690E00E94E0174A
:100600008FEF881A980AA80AB80AC4CF0E94481324
:1006100060E080E00E94F31382E00E942B158823A3
:1006200009F4BCC081E791E00E945F1361E080E0C3
:100630000E94F3138AE791E00E945F13FF24F39472
:1006400080E20E942B15882369F081E891E00E94E6
:100650005F1361E080E00E94F3138AE791E00E945B
:100660005F13F12C8CE291E00E94E017F98220E008
:1006700040E150E060E970E0C8010E943F06C80117
:100680000E94EA0520E040E150E060E970E0C80126
:100690000E943F060E94481360E080E00E94F3132E
:1006A0008AE891E00E945F1361E080E00E94F3130A
:1006B00081E591E00E945F13A60160E070E0CE0149
:1006C00001960E94B4098CE291E00E94E0170E941A
:1006D000481360E080E00E94F31383E991E00E94F8
:1006E0005F1361E080E00E94F3138CE991E00E94C7
:1006F0005F13C8010E94F7060E94481360E080E083
:100700000E94F31385EA91E00E945F1361E080E0AC
:100710000E94F31382E691E00E945F13812C912CDA
:1007200054018394640181E0C81AD10882E00E94D8
:100730002B15811135C080E20E942B15811130C02C
:1007400080E10E942B15882389F30E94481360E002
:1007500080E00E94F3138AE591E00E945F1361E05C
:1007600080E00E94F3138BE691E00E945F13C501C5
:10077000B4010E94CD138EE691E00E945F1380E1E8
:100780000E942B158111FBCF84E690E00E94E017B8
:100790008FEF881A980AA80AB80AC4CFF12C50CF54
:1007A0000E94481360E080E00E94F31382E00E9400
:1007B0002B15882371F081E791E00E945F1361E0BF
:1007C00080E00E94F3138DEA91E00E945F13FF2402
:1007D000F39480E20E942B15882369F081E891E070
:1007E0000E945F1361E080E00E94F3138DEA91E0C4
:1007F0000E945F13F12C8CE291E00E94E017F982D5
:1008000020E040E150E060E970E0C8010E943F064E
:10081000C8010E94EA0520E040E150E060E970E094
:10082000C8010E943F060E94481360E080E00E94D9
:10083000F3138AE891E00E945F1361E080E00E9478
:10084000F31381E591E00E945F13A60161E070E07F
:10085000CE0101960E94B4098CE291E00E94E0175B
:100860000E94481360E080E00E94F31384EB91E063
:100870000E945F1361E080E00E94F3138CE991E035
:100880000E945F13C8010E94F7060E94481360E0AF
:1008900080E00E94F3138DEB91E00E945F1361E012
:1008A00080E00E94F31386EC91E00E945F1382E0E7
:1008B0000E942B15811105C080E20E942B15882310
:1008C000B1F30E94481360E080E00E94F31382E0DD
:1008D0000E942B158823B1F08EEC91E00E945F13EB
:1008E00061E080E00E94F31386ED91E00E945F13C7
:1008F00080E991E00E94E01760E070E0CE0101968F
:100900000E94DB0C80E20E942B158823B1F08DED54
:1009100091E00E945F1361E080E00E94F31386ED96
:1009200091E00E945F1380E991E00E94E01761E08E
:1009300070E0CE0101960E94DB0C87E990E00E94F6
:100940002F1261E080E00E94F3139CCFCF93DF93DE
:10095000EC01FC01E65AFF4F1082CB01BA010E9464
:10096000D31680E00E94CD1662E0CE01CC960E94A4
:100970003816DF91CF910895FC01E458FF4F1082A3
:1009800031961082339710823196108233961082FE
:1009900031961082319621E0208338972081318171
:1009A0002F5F3F4F3C9731832083329631832083E2
:1009B00032963183208308950F931F93CF93DF9353
:1009C000EC018C01005A1F4F61E0C8010E943418ED
:1009D000F80180819181DE01AC58BF4F76964D9130
:1009E0005C91119720813181240F351F5297AE0100
:1009F00048595F4F82179307C8F06D917C9111970A
:100A00006217730798F0729760817181621773079C
:100A100068F03296608171816217730738F0FA01CD
:100A2000608171816217730708F03FC0FA0140814D
:100A300051814217530728F061E0FE01E558FF4F4E
:100A400060838217930728F061E0FE01E658FF4FAC
:100A500060836D917C916217730768F5FE01EC5914
:100A6000FF4F0190F081E02DE217F30798F5FE01AA
:100A7000EA59FF4F0190F081E02DE217F30788F566
:100A8000FE01EC59FF4F808191818217930768F531
:100A9000FE01EA59FF4F808191818217930728F563
:100AA000C158DF4F81E0888320C061E0FE01E25839
:100AB000FF4F6083BBCF82179307B8F442175307E9
:100AC000A0F481E0FE01E058FF4F808362177307B6
:100AD00060F4D6CF8217930740F44217530788F388
:100AE000CFCF82179307C8F3D3CFDF91CF911F9158
:100AF0000F9108954F925F926F927F929F92AF9263
:100B0000BF92CF92DF92EF92FF920F931F93CF93FA
:100B1000DF93EC010E94DC045E0122E6A20EB11C10
:100B2000C859DF4F88EE482E83E0582E612C712C77
:100B3000E0E0F0E0C12CD12C7601912CD5010D9193
:100B40001D915D01093C110524F40333110574F076
:100B500002C099249394D801A30192010E946420B9
:100B6000C60ED71EE81EF91EE00FF11FB8EE4B0EA1
:100B7000B3E05B1E611C711CAC16BD06F9F691104A
:100B80000AC08091910290919202803D974084F03A
:100B900080EA9FE00FC09F0140E050E0C701B6012E
:100BA0000E94B020C901309392022093910202C0AA
:100BB00080E090E0DF91CF911F910F91FF90EF9037
:100BC000DF90CF90BF90AF909F907F906F905F909D
:100BD0004F900895A0E0B0E0E0EFF5E00C94F7202E
:100BE000EC018CE291E00E94E0170CEE1FEFCE01C9
:100BF000845A9F4F6C01FE01E25AFF4F7F018FEB39
:100C0000A82EBB24BA9491E4892E912CC55ADF4FAB
:100C1000F6010832110550F091828082F701B1820D
:100C2000A0826FEB7FEF81E490E009C0B182A082E7
:100C3000F7019182808261E470E08FEB9FEF0E9468
:100C4000F21461E0CE010E94731882E090E00E94ED
:100C5000E0170F5F1F4F0C331105D1F6F60111821B
:100C60001082F7011182108260E070E080E090E075
:100C70000E94F214CDB7DEB7ECE00C941321A3E090
:100C8000B0E0E5E4F6E00C94F1209B838A836B01ED
:100C90007A0129831C0180E6280E311C0EE610E043
:100CA0004A805B80E2E64E0E511C6A807B80F4E64F
:100CB0006F0E711CAA80BB8086E6A80EB11C8A80CC
:100CC0009B80E8E68E0E911C8E2D0E942B158111C3
:100CD0006FC00E944813C6010E94701361E080E05B
:100CE0000E94F313F981FF2309F447C08A819B8195
:100CF0000E94DC04F10180819181B8010E9488206A
:100D000080E090E00E94D01361E081E00E94F31344
:100D1000F20180819181B8010E94882080E090E0FA
:100D20000E94D01361E082E00E94F313F3018081FE
:100D30009181B8010E94882080E090E00E94D01349
:100D400061E083E00E94F313F50180819181B80195
:100D50000E94882080E090E00E94D01361E084E04F
:100D60000E94F313F40180819181B8010E948820D0
:100D700080E090E00E94D01316C0F0E1EF16F1047D
:100D800059F080E2E816F10451F0E2E0EE16F104C9
:100D900051F480E391E005C088E391E002C080E473
:100DA00091E00E945F1384E190E00E94E0178CCFF5
:100DB00084E690E00E94E0172396E2E10C940D2176
:100DC000FC01E45AFF4F26EA3FEF3183208332963D
:100DD0008AE590E0918380836AE570E086EA9FEF80
:100DE0000E94F21480E991E00E94E0170895FC014E
:100DF000E45AFF4F1182108232961182108260E015
:100E000070E080E090E00E94F21408950F931F9329
:100E1000CF93DF93FC019B01205D3740868597854A
:100E20008901081B190BC485D585C20FD31FD5872F
:100E3000C4873787268764817581C9010E949C20F9
:100E40009B0166817781CE010E949C20620F731FF7
:100E500080859185089F9001099F300D189F300D66
:100E6000112482859385620F731F861797070CF4F0
:100E7000BC0122273327281B390B621773070CF498
:100E8000B90177FF05C0680F791F7183608304C0C3
:100E900091838083861B970B9383828381E090E00C
:100EA0000E94E017DF91CF911F910F910895A8E064
:100EB000B0E0EDE5F7E00C94F1203C0118861F82CC
:100EC0002C0121E8420E511C8C589F4F9A83898334
:100ED000F301EA58FF4FFC83EB838301005A1F4F55
:100EE000930128593F4F3E832D8313013BE5230E89
:100EF000311C730183E8E80EF11C630195E8C90E0B
:100F0000D11C5301ECE5AE0EB11C4301FEE58F0E82
:100F1000911CF201808191812F8138852817390732
:100F20000CF069C0E981FA8120813181EB81FC817B
:100F300080819181820F931FF801208131812817D0
:100F4000390758F0ED81FE8120813181281739075A
:100F500020F0809197028823A9F18091970288233D
:100F6000A9F00E941A1820919302309194024091A6
:100F7000950250919602DC01CB01821B930BA40BCE
:100F8000B50B893E9340A105B10590F5C3010E94C0
:100F9000DC0420E041E0B801C1010E947818BC01E6
:100FA000C7010E940607F60160817181F701808107
:100FB0009181F50191838083F401718360830E94A4
:100FC000F214A7CF0E941A186093930270939402B0
:100FD00080939502909396028F81988501969887C9
:100FE0008F83C3010E94BC0491E090939702B5CF18
:100FF00010929702CBCF2896E2E10C940D21AAE043
:10100000B0E0E5E0F8E00C94F1209C018C0106577B
:101010001F4FF80115861486178616867C01F9E0A5
:10102000EF0EF11CC70129873A870E94DC0429854D
:101030003A85C90183589F4F9A838983F901E15802
:10104000FF4FFC83EB831901F9E62F0E311C2901B8
:1010500081E7480E511C39019BE6690E711C69013C
:10106000EDE6CE0ED11CC90181599F4F9E838D8321
:1010700059019CE8A90EB11C4901E5E68E0E911CB0
:10108000C90189599F4F98878F83E981FA8120810F
:101090003181EB81FC8180819181820F931FF1016D
:1010A000208131812817390780F5F20120813181B3
:1010B0002817390750F5F3012081318128173907A6
:1010C000B8F0C7010E947A05BC01C8010E9406075A
:1010D000F50160817181F80180819181F401918332
:1010E0008083EF81F885718360830E94F214CDCFF5
:1010F000F601208131812817390718F7ED81FE812B
:101100002081318128173907E0F62A96E2E10C9414
:101110000D21A0E0B0E0EFE8F8E00C94F120EC0144
:101120006A017B010E941A182B013C011E0189E013
:10113000280E311C8E0106571F4F4E01ECE88E0E13
:10114000911C5E01F5E6AF0EB11CC959DF4F0E943C
:101150001A18DC01CB0184199509A609B7098C1569
:101160009D05AE05BF05A8F4C1010E947A05BC012A
:10117000C8010E940607F40160817181F801808135
:101180009181F50191838083798368830E94F214B1
:10119000DECFCDB7DEB7E2E10C940D214F925F9226
:1011A0006F927F92AF92BF92CF92DF92EF92FF92B7
:1011B0000F931F93CF93DF93EC016A017B010E9491
:1011C0001A182B013C015E0185E6A80EB11C04EB48
:1011D00010E0C959DF4F0E941A18DC01CB018419B5
:1011E0009509A609B7098C159D05AE05BF0560F4E4
:1011F000F501118300831983088364EB70E084EBAD
:1012000090E00E94F214E7CFDF91CF911F910F91F0
:10121000FF90EF90DF90CF90BF90AF907F906F9056
:101220005F904F900895A0E0B0E0E9E1F9E00C9400
:10123000FB20EC016B018B01000F111F0C0F1D1F18
:1012400008531E4FF80120813181233031050CF401
:1012500086C07901F2E0EF1AF10886E98C9DB001B1
:101260008D9D700D1124FE01E60FF71FEE0DFF1D81
:10127000E456FF4F8081823409F071C0620F731F02
:1012800043E050E080E090E0FA01E60FF71FE856F7
:10129000FF4FEC0FFD1FE081EC3451F0E23529F0F7
:1012A000E23441F48C549F4F05C0865A9F4F02C0D0
:1012B000825F9E4F4150510939F768E671E00E9404
:1012C0009C208A35910549F194F4892B09F044C09A
:1012D00086E98C9DF0018D9DF00D1124CE0FDF1F4E
:1012E0002C0F3D1FE901C756DF4F83E524C0843B27
:1012F000910519F18E30914079F586E98C9DF001C8
:101300008D9DF00D1124EC0FFD1F2E0F3F1FF901D5
:10131000E756FF4F8CE480831FC086E98C9DF00167
:101320008D9DF00D1124CE0FDF1F2C0F3D1FE90105
:10133000C756DF4F82E588830FC086E98C9DF00198
:101340008D9DF00D1124CE0FDF1F2C0F3D1FE901E5
:10135000C756DF4F82E4EFCFF801F182E082CDB7CC
:10136000DEB7E8E00C941721A4E1B0E0EAEBF9E085
:101370000C94F1209C8B8B8B5B012A01CC24C394B1
:101380004115510509F0C12CEB88FC882AE8E20ED2
:10139000F11CD7011D961C921E921C971F961C9241
:1013A0001E921E970B891C89075F1F4FC8010E9460
:1013B000BC044AEF50E060E070E08B899C890E9499
:1013C00089081501220C331C8B899C89820D931D81
:1013D0009C0128533E4F3A83298326E92A9DC00168
:1013E0002B9D900D11242B893C89280F391F3A879A
:1013F00029872B893C8923583F4F3E832D832B8996
:101400003C8921583F4F38872F832B893C892759A6
:101410003F4F3C872B872B893C892F583F4F3E8776
:101420002D87C1102AC04114510439F546E950E016
:1014300060E070E08B899C890E948908C8010E9445
:10144000E006A981BA818D919C911197E985FA8571
:10145000E80FF91FE456FF4F22E4208301968D9395
:101460009C93F7011586148617861686B5018B891D
:101470009C890E941309CC24C3948B899C890E9467
:10148000FF07812C912C612C712CAB89BC891196A2
:101490008D919C911297881699065CF541E050E079
:1014A00060E070E08B899C890E94CE08C8010E9490
:1014B000DC04AD81BE812D913C91EF81F885808166
:1014C0009181820F931FAB85BC852D913C9128178C
:1014D000390710F077247394ED85FE8520813181E2
:1014E0002817390710F066246394FFEF8F1A9F0ABC
:1014F000CCCF812C912CD12CA559BF4FBC83AB8371
:101500002B893C8923593F4F388B2F872B893C8966
:1015100021593F4F3A8B298BEB89FC898381948138
:10152000881699066CF541E050E060E070E08B8928
:101530009C890E94CE08AD81BE812D913C91EF81A6
:10154000F88580819181820F931FAB81BC812D91A1
:101550003C912817390770F4EF85F8892081318193
:101560002817390738F4A989BA892D913C91281791
:10157000390710F0DD24D394BFEF8B1A9B0ACCCF30
:1015800045815681662757FD6095762FCF010E94D1
:10159000CE08C8010E94DC04AD81BE812D913C9132
:1015A000EF81F88580819181820F931FAB85BC8587
:1015B0002D913C912817390708F1EB81FC8120819E
:1015C000318128173907D0F0EB89FC89E359FF4FA7
:1015D000208131812817390788F0EB89FC89E1598E
:1015E000FF4F208131812817390740F0AD85BE8536
:1015F0002D913C912817390708F0D2C0EB81FC816E
:10160000208131812817390790F4EB89FC89E3594F
:10161000FF4F208131812817390748F4EB89FC8975
:10162000E159FF4F208131812817390710F0DD245F
:10163000D394EB89FC898081811107C0611014C0AB
:10164000D1100FC071100AC006C0711007C0D110B0
:1016500008C0611009C032E4932E08C02CE4922E19
:1016600005C093E5992E02C082E5982E0E9448138A
:10167000772019F08CE40E94CB12DD2019F086E46B
:101680000E94CB12662019F082E50E94CB12C8019D
:101690000E94F70680E20E94CB12892D0E94CB1295
:1016A000D7011D961C921E921C971F961C921E928B
:1016B0001E97BCE49B16E1F0B9156CF0E2E49E12B3
:1016C00050C080E20E94CB1282E40E94CB12C8017B
:1016D0000E94E0062FC0F2E59F16D9F023E5921292
:1016E00040C080E20E94CB1283E50E94CB122EC044
:1016F00080E20E94CB128CE40E94CB126BE670E079
:1017000085E99FEF0E94FD1484EB90E00E94E017B2
:1017100011C080E20E94CB1282E50E94CB1265E9E3
:101720007FEF8BE690E00E94FD1484EB90E00E9436
:10173000E0170CC0AB89BC8917964D915C91189746
:10174000662757FD6095762FCD0109C0EB89FC898E
:1017500047815085662757FD6095762FCF010E94FF
:101760008908A981BA818D919C911197E985FA85A3
:10177000E80FF91FE456FF4F908201968D939C93DA
:10178000F7011586148617861686B5018B899C8904
:101790000E941309C11045CEF1E04F1A510843CE03
:1017A000CB88DC88C20CD31CF8E3CF1AFEEFDF0A2B
:1017B000D6018D919C9126E92A9D40012B9D900C8C
:1017C0001124EB89FC89E80DF91DE80FF91FE45697
:1017D000FF4F10820E944813BCE98B0E911C2B898D
:1017E0003C89820E931EC4010E945F13D6018D9125
:1017F0009C91099744F061E080E00E94F313C401DA
:1018000008960E945F13C8010E94F706C8010E9453
:10181000E006C8010E94F70682E390E00E94E0170C
:1018200048E750E060E070E08B899C890E9489085D
:101830000E94481360E080E00E94F313D601CD902F
:10184000DC90B1E0CB1AD10886E98A9D40018B9DDE
:10185000900C1124D7FC8DC08B899C890E94FF07B6
:10186000EB89FC894581568183819481480F591FFA
:1018700081819281480F591F4D5F5F4F662757FD49
:101880006095762FCF010E94CE08D7011D961C923D
:101890001E921C971F961C921E921E97F601E80D31
:1018A000F91DE456FF4F2B893C89E20FF31F80811D
:1018B0008C3431F13CF4823409F04EC0C8010E94EE
:1018C000E00633C0823539F0833509F045C083E541
:1018D0000E94CB1236C08CE40E94CB12C8010E9439
:1018E000F70682E390E00E94E0176BE670E085E97E
:1018F0009FEF0E94FD1484EB90E00E94E01715C05A
:1019000082E50E94CB12C8010E94F70682E390E0B4
:101910000E94E01765E97FEF8BE690E00E94FD14DE
:1019200084EB90E00E94E0170CC0AB89BC8917964D
:101930004D915C911897662757FD6095762FCD01E4
:1019400009C0EB89FC8947815085662757FD609562
:10195000762FCF010E948908D7011D961C921E92F6
:101960001C971F961C921E921E97B1E0CB1AD108AD
:1019700071CF4BE450E060E070E08B899C890E945D
:1019800089088B899C890E94FF0746E950E060E046
:1019900070E08B899C890E94CE08C8010E94F706DE
:1019A00084EF91E00E94E017C8010E94E00664966F
:1019B000E2E10C940D21A4E0B0E0E1EEFCE00C9437
:1019C000F1209C838B832B014FEA50E060E070E0B4
:1019D0000E94CE0886E9849D1001859D300C11245B
:1019E0008B819C81280E391EE12CF12C440C551C56
:1019F000480E591E98E3491A9EEF590A0B811C8123
:101A000006571F4F6B807C80E5E66E0E711C3CE92B
:101A1000C32EDD24DA94AB80BC80F7E6AF0EB11C98
:101A200044E6842E912C8B819C8109969A8389832C
:101A3000F20180819181E816F9060CF069C08B8172
:101A40009C810E94FF07EB81FC814181528183814F
:101A50009481480F591F85819681480F591F662729
:101A600057FD6095762FCF010E948908F8011586F1
:101A7000148617861686F701E456FF4FE20DF31D14
:101A800080818C34F1F03CF48234C9F589819A81EB
:101A90000E94E00629C0823531F0833581F583E567
:101AA0000E94CB1221C082E50E94CB12F3019182E9
:101AB0008082F501D182C0826CE97FEF84E690E0FC
:101AC0000DC08CE40E94CB12F301D182C082F501DB
:101AD0009182808264E670E08CE99FEF0E94F214AC
:101AE00084EB90E00E94E017EB81FC8147815085F8
:101AF000662757FD6095762FCF010E948908F8016F
:101B00001586148617861686FFEFEF1AFF0A90CF08
:101B10008B819C810E94FF07EB80FC80F9E0EF0E37
:101B2000F11CC7010E94F706C7010E94E00644E6C7
:101B300050E060E070E08B819C810E948908C701C1
:101B40000E94F706F8011586148617861686F2019C
:101B5000C080D180F1E0CF1AD1084B805C8085E64F
:101B6000480E511C84E6682E712CAB80BC8097E631
:101B7000A90EB11C9CE9892E99249A948B819C8191
:101B8000D7FC5BC00E94FF0744E150E060E070E0DA
:101B90008B819C810E948908F8011586148617861E
:101BA0001686F601E456FF4FE20DF31D80818C345A
:101BB00079F034F48234C1F5C7010E94E00629C0EF
:101BC0008235A1F0833581F583E50E94CB1221C0D7
:101BD00082E50E94CB12F20171826082F50191824E
:101BE00080826CE97FEF84E690E00DC08CE40E9477
:101BF000CB12F20191828082F5017182608264E6EB
:101C000070E08CE99FEF0E94F21484EB90E00E9458
:101C1000E017EB81FC8147815085662757FD609571
:101C2000762FCF010E948908F80115861486178641
:101C30001686F1E0CF1AD108A1CF0E94FF0748EC29
:101C400050E060E070E08B819C810E948908C701B0
:101C50000E94F706C7010E94E006C7010E94F7062E
:101C60002496E2E10C940D21ACEDB0E0EAE3FEE055
:101C70000C94012183EB90E00E942F1240E052EC83
:101C800061E070E0CE0101960E94A6046F961FAE3F
:101C90001EAE6F97A1961FAE1EAEA1978BE490E08B
:101CA000E7969FAF8EAFE79788EC90E0E9969FAFFD
:101CB0008EAFE9978AE090E0EB969FAF8EAFEB97FF
:101CC000EC961FAEEC97ED961FAEED97EE961FAE1D
:101CD000EE97EF961FAEEF97C158DF4F1882CF57A0
:101CE000D040C058DF4F1882C058D040CF57DF4F88
:101CF0001882C158D040AD961FAE1EAEAD97AF96BC
:101D00001FAE1EAEAF97E1961FAE1EAEE197E396F3
:101D10001FAE1EAEE397E5961FAE1EAEE59760E0E0
:101D200080ED97E00E943C1840E052EC61E070E0EA
:101D3000CE018E579F4F0E94A6048BE5FE01EE5701
:101D4000FF4FDE01119601900D928A95E1F7CE01C9
:101D5000845A9F4F0E946E18CE0101960E94BC04C7
:101D60000E94481360E080E00E94F31385EE91E04A
:101D70000E945F1361E080E00E94F3138EEE91E019
:101D80000E945F1382E00E942B15811105C080E242
:101D90000E942B158823B1F382E00E942B15882323
:101DA000A1F085EF91E00E945F1361E080E00E9466
:101DB000F3138EEF91E00E945F138CE291E00E949A
:101DC000E017CE0101960E94A50180E20E942B152A
:101DD0008823A1F086E092E00E945F1361E080E03A
:101DE0000E94F3138EEF91E00E945F138CE291E06A
:101DF0000E94E017CE0101960E942E028EE092E032
:101E00000E945F13FFCF90911902E0911502F091AB
:101E10001602992311F0849101C08081282F21544A
:101E20002A3110F4805E0895803271F420911502F9
:101E300030911602A9014F5F5F4F509316024093F5
:101E400015022115310509F70895EF92FF92CF93FE
:101E5000DF930E94030FC0E0D0E01BC09E01220F61
:101E6000331F93E0CC0FDD1F9A95E1F7C20FD31F0C
:101E7000992787FD9095C80FD91FE097809115028B
:101E800090911602019690931602809315020E947B
:101E9000030F982F90539A3008F3CE01DF91CF9122
:101EA000FF90EF90089510926F0083E2809380007E
:101EB00081E1809381001092820080E197E290930B
:101EC00089008093880010928B0010928A00229AD9
:101ED0007894089580911402882329F481E08093F6
:101EE00014020E94530F0895A0E0B0E0EAE7FFE07B
:101EF0000C94F7208C015B01E42E0E946A0F109273
:101F0000010117FF04C01F77AAE0FA2E02C0FF24C8
:101F1000F394C0908100DD2428EFC222DD2488ECF8
:101F20003F2D389FC001112480179107D8F4E80194
:101F300067E20131160710F0C0E1D7E2BE017695E5
:101F4000679580E090E06058794687469F4F9E01F4
:101F500040E050E00E94B020890181E090E0C82A72
:101F6000D92A2CC098E2F99E902D112480E0892E68
:101F7000E4014E01982EE4018016910608F4E80170
:101F8000BE01769567959E0140E050E08F2D8A3026
:101F900039F480E090E0605E734481449F4F06C056
:101FA00080E090E060537D4E8C4E9F4F0E94B020A9
:101FB000890152E0852E912CC828D9282F2D2A304E
:101FC00039F4CE0105966AE070E00E948820EB01AA
:101FD00033E0C83ED30779F0BE0180E090E0950180
:101FE00040E050E00E946C2028EE33E040E050E0FA
:101FF0000E94D22001C0950110926F00C092810012
:1020000010938900009388004091880050918900C6
:102010006E2D603108F06FE080E190E0861B910941
:10202000BA0102C0769567958A95E2F770938B00A6
:1020300060938A0030931C0220931B0286B38FEFBB
:1020400086BB81E080936F00CDB7DEB7ECE00C94E7
:1020500013219B018F3F11F0442329F488EE93E074
:10206000B90140E049C0813130F0582F505150360D
:1020700018F05FE501C050E0852F6CE00E947C20E5
:10208000A82FB0E0E4EFFFEFAE9FB001AF9F700D5F
:10209000BE9F700D1124650F711D6C30710540F4E9
:1020A000FB01EE0FFF1FE55FFE4F6081718102C0F3
:1020B00060E070E0873081F0082E02C0660F771F65
:1020C0000A94E2F7823028F0CB0105966AE070E0CE
:1020D0000CC0605070480BC0CB01B6E0880F991F50
:1020E000BA95E1F7029665E070E00E9488204031E1
:1020F00008F04FE0CB01B9010E94740F0895A0E0F1
:10210000B0E0E5E8F0E10C94F620B0900201809197
:102110001702882361F060911802662341F08FEF67
:1021200070E040E00E9429101092180234C1C0EC07
:10213000DDE5AA24A39414E0712E00ED17E0B4E0CD
:10214000EB2EF12CA4EFCA2EA1E0DA2EFFE08F2EA9
:10215000912C0E94030F20911502309116022F5FDF
:102160003F4F30931602209315028636F1F18736E1
:10217000CCF4823609F4AFC083367CF48E3349F157
:102180008F333CF4813209F487C08C3309F09BC053
:1021900022C0813609F097C09BC0843601F1853694
:1021A0000CF51BC08F3609F447C0803744F48C36D9
:1021B00011F18D3661F1873609F085C019C0843779
:1021C00009F444C0863709F460C0823709F07BC047
:1021D00039C0B394BECFBA94BCCFEE2435C0EE2440
:1021E00082E07BC0EE2484E078C0EE2485E075C0F8
:1021F000EE2487E072C00E94250FBC019093040179
:1022000080930301809105019091060137C00E94DF
:10221000030F8C3619F41092170204C0A092170213
:1022200010921802809115029091160201969093D7
:102230001602809315028DCF0E94250FB82E809331
:10224000020187CFEE24E39480E047C00E94250F6F
:10225000BC01CE010E948820CB01880F991F53E05A
:10226000660F771F5A95E1F7860F971F9093060127
:102270008093050160910301709104010E94882000
:10228000709308016093070164CF0E94250F90931B
:102290000A01809309015DCF70920201109306013B
:1022A00000930501F0920401E0920301D09208012D
:1022B000C092070190920A018092090110921702C0
:1022C00044E0B42E46CF109216021092150263C05D
:1022D000EE2489E002C0EE248BE09CE0B99EB02C95
:1022E0001124B80E0E94030F8B3211F08332B9F41F
:1022F0008091150290911602019690931602809398
:102300001502B394EFCF80911502909116020196B9
:102310009093160280931502BA940E94030F8D3297
:1023200091F3C0910701D09108018153883058F48E
:10233000C0910501D09106010E94250FBC01CE017C
:102340000E948820EB018E010BC0809115029091B4
:10235000160201969093160280931502C00FD11FAA
:10236000169507950E94030F8E3279F3809117021C
:10237000882339F0CE019695879580931802C81B63
:10238000D109EE2011F0BB24BA948B2DBE014091EF
:1023900009010E942910CDB7DEB7EDE00C9412219F
:1023A0001F920F920FB60F9211242F933F934F93CA
:1023B0005F936F937F938F939F93AF93BF93EF93AD
:1023C000FF9380911B0290911C029C012150304090
:1023D00030931C0220931B02009711F510926F009E
:1023E000789480918100887F81608093810080E172
:1023F00097E2909389008093880010928B0010924E
:102400008A0081E08093010180911502909116026B
:10241000009731F080911A02882311F40E947F10F6
:10242000FF91EF91BF91AF919F918F917F916F91AC
:102430005F914F913F912F910F900FBE0F901F9082
:10244000189510926F00909316028093150281E008
:1024500080931902109218020E947F1008950E9422
:102460002112089581E090E06F9364E06A95F1F79E
:102470006F910197C9F708950F931F93CF93DF933F
:102480001AB157985A98289AC0E0D0E00E943212A8
:102490005C9A0E94321209B15C980E9432125C9AD6
:1024A0000E9432125C9807FF11C024969E0140E002
:1024B00050E08091210290912202A0912302B091DC
:1024C0002402281739074A075B0700F31AB9DF917E
:1024D000CF911F910F91089565B190E0AC014170CB
:1024E0005070440F551F9C012670307053E0220F2E
:1024F000331F5A95E1F7242B6D7C262B25B92BB180
:102500008870907034E0880F991F3A95E1F72F7723
:10251000282B2BB95C9A0E9432125C980E943212CE
:102520000895A2E0B0E0E7E9F2E10C94FC20182F56
:102530004A8369830E9412130E943C12F4B005B1D1
:10254000DAB0EBB0289869814A81662311F05A9A73
:1025500001C05A9884B1826384B9579A413029F0F6
:10256000812F82958F700E946C12812F8F700E9434
:102570006C12DAB8EBB8F4B805B92296E7E00C941F
:10258000182160E042E00E949112089561E042E06B
:102590000E94911208950E94C612089560E041E0E1
:1025A0000E949112089580E197E2A0E0B0E080934C
:1025B000210290932202A0932302B0932402529A04
:1025C000209A549A8EE190E00E94E01783E00E94E6
:1025D000CE1286E090E00E94E01783E00E94CE12C7
:1025E00082E090E00E94E01783E00E94CE1282E039
:1025F00090E00E94E01782E00E94CE1282E090E01C
:102600000E94E01788E20E94C11288E00E94C11275
:1026100081E00E94C11286E00E94C1128CE00E94FB
:10262000C112089580912502882329F481E08093C6
:1026300025020E94D312089581E00E94C112809168
:102640001D0290911E02009711F1A0E0B0E208C0B7
:10265000E0911D02F0911E02E20FF31FB083AF5F05
:102660002A2F30E08091230190E0019760912401AE
:1026700070E0869FA001879F500D969F500D1124FA
:10268000241735072CF31092200210921F02089590
:102690000E941C130895EF92FF92CF93DF93E82ED0
:1026A000E7017E01F92EE70102C00E94C61289915E
:1026B0008823D9F7DF91CF91FF90EF9008950E9482
:1026C0004B130895CF93DF93EC0103C00E94C61211
:1026D0002196FE0184918823C9F7DF91CF91089557
:1026E0000E9462130895AAE0B0E0E9E7F3E10C94D8
:1026F000F9209B01AC011AE0EAE0CE2ED12CE12CAE
:10270000F12C5E010894A11CB11C022FCA01B90171
:10271000A70196010E94B0201150F501E10FF11DB3
:10272000005D922F990F892F880F880F890F081B42
:102730000083211531054105510539F708C0F6011F
:10274000E10FF11D80810E94C6121F5F04C06E015F
:102750000894C11CD11C1A3090F32A96EAE00C941C
:102760001521EF92FF920F931F937B018C0197FF2E
:102770000BC010950095F094E094E11CF11C011D34
:10278000111D8DE20E94C612C801B7010E94731389
:102790001F910F91FF90EF9008950E94B11308953B
:1027A0000E9473130895A5E0B0E0E9EDF3E10C9405
:1027B0000021182F80E8898380EC8A8384E98B8349
:1027C00084ED8C83FE01E60FF11D8181810F6D8305
:1027D0000E94C112109320026D8160931F02259602
:1027E000E3E00C941C210E94D3130895FC01118294
:1027F000108213821282158214821682683068F465
:1028000089E290E0918380838BE290E093838283DE
:102810008AE290E09583848311C06E30C0F483E235
:1028200090E09183808385E290E09383828384E2C9
:1028300090E09583848370E06850704081E090E080
:1028400002C0880F991F6A95E2F786830895653163
:10285000B8F486E290E09183808388E290E09383ED
:10286000828387E290E09583848370E06E507040AD
:1028700081E090E002C0880F991F6A95E2F7868395
:102880000895FC01A481B5818681662321F09C9185
:10289000982B9C9308959C91809589238C930895FF
:1028A000FC016F3F31F4A281B3818C91968189271D
:1028B0000CC0A281B3818681662321F09C91982B64
:1028C0009C9308959C91809589238C930895A7E00B
:1028D000B0E0EDE6F4E10C94FE20282FF62E8E01F8
:1028E0000F5F1F4FC801622F0E94F613C8016F2DA2
:1028F0000E945014C80161E00E9441142796E5E04F
:102900000C941A21E0EBF0E083EF8083808184BD9A
:10291000E1EBF0E082E08083808185BDE4EBF0E0D4
:1029200010828081E3EBF0E08083808188BD88B5F0
:1029300087BD86E060E00E94671485E060E00E9449
:1029400067148BE060E00E94671483E060E00E94FF
:102950006714089580912602882329F481E08093EA
:1029600026020E9482140895CF93DF93EC010E9407
:10297000AA14D7FF05C0D095C195DF4F81E001C0F3
:1029800080E0CF3FD10519F014F0CFEFD0E08823DD
:1029900019F018BCC7BD02C0C8BD17BCDF91CF91EC
:1029A0000895CF93DF93EC010E94AA14D7FF05C0CE
:1029B000D095C195DF4F81E001C080E0CF3FD105C8
:1029C00019F014F0CFEFD0E0882329F01092B40072
:1029D000C093B30004C0C093B4001092B300DF9161
:1029E000CF910895CF93DF93EB010E94B414CE01F1
:1029F0000E94D114DF91CF9108950E94F21408959E
:102A000084B18D7C84B985B1826385B985E090E01D
:102A10006F9364E06A95F1F76F910197C9F7089594
:102A200080912702882329F481E0809327020E9465
:102A300000150895A1E0B0E0E0E2F5E10C94012179
:102A400089830E94101593B19095898189232196DD
:102A5000E2E00C941D210E941A150895E1ECF0E0CB
:102A600080818F7D80830895282F30E0F901EE0F5B
:102A7000FF1F43E0220F331F4A95E1F7E20FF31FD8
:102A8000EC5CFD4F408551854115510509F452C05C
:102A9000282F30E0F901EE0FFF1FB3E0220F331FA4
:102AA000BA95E1F7E20FF31FEC5CFD4F7281282F1E
:102AB00030E0F901EE0FFF1F93E0220F331F9A95CC
:102AC000E1F7E20FF31FEC5CFD4F9481791790F56D
:102AD000282F30E0F901EE0FFF1FA3E0220F331F74
:102AE000AA95E1F7E20FF31FEC5CFD4F9281490FCD
:102AF000511DFA016083282F30E0F901EE0FFF1F0E
:102B000063E0220F331F6A95E1F7E20FF31FEC5CDD
:102B1000FD4F92819F5F282F30E0F901EE0FFF1FDC
:102B200043E0220F331F4A95E1F7E20FF31FEC5CFD
:102B3000FD4F9283282F30E0F901EE0FFF1FA3E035
:102B4000220F331FAA95E1F7E20FF31FEC5CFD4F54
:102B50004281282F30E0F901EE0FFF1F63E0220FC2
:102B6000331F6A95E1F7E20FF31FEC5CFD4F948190
:102B7000491701F5282F30E0F901EE0FFF1F43E060
:102B8000220F331F4A95E1F7E20FF31FEC5CFD4F74
:102B90009581992379F0282F30E0F901EE0FFF1F7E
:102BA00083E0220F331F8A95E1F7E20FF31FEC5CFD
:102BB000FD4F128208959091C1009F779093C100BC
:102BC000A82FB0E0FD01EE0FFF1F93E0AA0FBB1F7F
:102BD0009A95E1F7EA0FFB1FEC5CFD4F7187608768
:102BE000682F70E0FB01EE0FFF1F53E0660F771FA9
:102BF0005A95E1F7E60FF71FEC5CFD4F1282682F44
:102C000070E0FB01EE0FFF1F93E0660F771F9A95B0
:102C1000E1F7E60FF71FEC5CFD4F4483482F50E0CF
:102C2000FA01EE0FFF1FA3E0440F551FAA95E1F72D
:102C3000E40FF51FEC5CFD4F2583282F30E0F901F0
:102C4000EE0FFF1F63E0220F331F6A95E1F7E20FDB
:102C5000F31FEC5CFD4F8081882329F48091C10033
:102C600080688093C100089521E00E94DB150895DB
:102C70009C01462F80E0B9010E94341608951F92EE
:102C80000F920FB60F9211242F933F934F935F93A0
:102C90006F937F938F939F93AF93BF93EF93FF9324
:102CA0006091C60080E00E943415FF91EF91BF91C2
:102CB000AF919F918F917F916F915F914F913F91D4
:102CC0002F910F900FBE0F901F901895282F30E076
:102CD000F901EE0FFF1F93E0220F331F9A95E1F7E2
:102CE000E20FF31FEC5CFD4F268137812115310582
:102CF000B9F1282F30E0F901EE0FFF1FA3E0220FFA
:102D0000331FAA95E1F7E20FF31FEC5CFD4F418101
:102D1000282F30E0F901EE0FFF1F63E0220F331F71
:102D20006A95E1F7E20FF31FEC5CFD4F93814917C1
:102D3000B8F4282F30E0F901EE0FFF1F43E0220F17
:102D4000331F4A95E1F7E20FF31FEC5CFD4F8081E2
:102D5000882331F48091C10080628093C10008957E
:102D60000E942E150895282F30E0F901EE0FFF1F65
:102D700053E0220F331F5A95E1F7E20FF31FEC5C8B
:102D8000FD4F9081992311F498E901C098E1909347
:102D9000C1000E946616789408958093340280E002
:102DA0000E94B3160895EF92FF920F931F937B0139
:102DB0008C0180E00E94B316C801B70128EF3FEFF5
:102DC0004FEF5FEF0E946C206050734D8E4C9E4F12
:102DD000A8019701E4E0220F331F441F551FEA9515
:102DE000D1F70E94B0203093C5002093C4001F91FA
:102DF0000F91FF90EF900895282F30E0F901EE0F2A
:102E0000FF1F73E0220F331F7A95E1F7E20FF31FE4
:102E1000EC5CFD4F468157814115510509F458C0BE
:102E2000282F30E0F901EE0FFF1F93E0220F331F30
:102E30009A95E1F7E20FF31FEC5CFD4F6181282FBB
:102E400030E0F901EE0FFF1FA3E0220F331FAA9518
:102E5000E1F7E20FF31FEC5CFD4F93816917C0F5BA
:102E60009091C00095FF34C0282F30E0F901EE0F9B
:102E7000FF1F63E0220F331F6A95E1F7E20FF31F94
:102E8000EC5CFD4F9181490F511DFA0190819093A7
:102E9000C600282F30E0F901EE0FFF1F93E0220F4C
:102EA000331F9A95E1F7E20FF31FEC5CFD4F918120
:102EB0009F5F282F30E0F901EE0FFF1FA3E0220FE4
:102EC000331FAA95E1F7E20FF31FEC5CFD4F9183EE
:102ED0000E94661608951F920F920FB60F9211244A
:102EE0002F933F934F935F936F937F938F939F9312
:102EF000AF93BF93EF93FF9380E00E94FC16FF9186
:102F0000EF91BF91AF919F918F917F916F915F9161
:102F10004F913F912F910F900FBE0F901F901895DA
:102F20006F9364E06A95F1F76F910197C9F708957F
:102F30002F928F939F932FB680913F0290914002E2
:102F4000019680933F029093400290E0809141026D
:102F5000891F80934102909147029C5F90934702A2
:102F60008091460280519742C0F09093470280932F
:102F70004602809142029091430201968093420260
:102F80009093430290E080914402891F8093440211
:102F900080914502891F809345022FBE9F918F919A
:102FA0002F901895CF93DF93EC0105C088EE93E046
:102FB0000E94901721972097C9F7DF91CF9108952C
:102FC0000E94D2170895E0E7F0E080818E7F808331
:102FD000A0EBB0E08C9183608C93A1EBB0E08C917E
:102FE000807F8C938C9182608C93B89A8081816071
:102FF00080837894089580914802882329F481E0A1
:10300000809348020E94E31708950E94FB17E0E7AF
:10301000F0E080818E7F80832091420230914302D4
:103020004091440250914502808181608083B901C2
:10303000CA0108950E94051808950E94FB17E0E751
:10304000F0E080818E7F80831092420210924302D2
:1030500010924402109245021092470210924602CA
:1030600080818160808308959C01462F89E492E0ED
:10307000B9010E94021B08950F93DF93CF9300D0F4
:1030800000D00F92CDB7DEB79C01962FDE011196CE
:10309000E5E2F1E085E001900D928150E1F7BE019B
:1030A0006F5F7F4F992329F089E492E045E00FEFAD
:1030B00004C089E492E045E003E10E94E11889E45C
:1030C00092E00E94B8180E941D180F900F900F9068
:1030D0000F900F90CF91DF910F91089589E492E0C6
:1030E0000E94CD18089589E492E00E94681D089519
:1030F00089E492E00E94C61B0895089589E492E055
:103100000E948C1D08956F9364E06A95F1F76F91AA
:103110000197C9F70895A7E0B0E0E1E9F8E10C9460
:10312000FF208C01FC011182108213821282158211
:10313000148217821682613118F080E1808702C004
:10314000FC016087F801208BCE010196642F0E945C
:10315000F6138F81F80181878B819C819387828709
:103160008D819E81958784872796E4E00C941B21AE
:10317000FC01A485B585109779F08C919185892BF8
:103180008C93A285B3859C918185809589238C93AE
:1031900088EC90E00E9483180895FC01A485B58511
:1031A000109771F08C919185892B8C93A285B385B2
:1031B0008C919185892B8C9388EC90E00E948318E8
:1031C0000895A7E0B0E0E7EEF8E10C94F1207C016F
:1031D0001B01642F3901402F20E00E948B189701BA
:1031E0002F5B3F4FF9011082D701AE5BBF4F1C929E
:1031F000C7018D5B9F4FFC011082F70177866686C1
:1032000066242E010894411C511C6C015D0149018A
:1032100029C0062D10E0F101E00FF11FC20160810D
:103220000E94F6132F81F701E00FF11F218B898196
:103230009A81F801EE0FFF1FEE0DFF1D92A381A3EF
:103240008332910511F4F40109C08632910511F41D
:10325000F50104C08932910521F4F6018081822BA9
:1032600080836394F7018085681698F22796E2E1DF
:103270000C940D21A0E0B0E0E0E4F9E10C94F6201C
:10328000EC015B01FC01EF5BFF4F9080FC01EE5B0A
:10329000FF4F8080FC01ED5BFF4F708080E009C034
:1032A000E82FF0E0EE0FFF1FEA0DFB1D11821082E8
:1032B0008F5F98858917A0F384B121E4E22EF12C69
:1032C000EC0EFD1ED7019C91892B84B987B18E012C
:1032D0000E5B1F4FF8019081892B87B98AB193E467
:1032E000C92ED12CCC0EDD1ED6019C91892B8AB91A
:1032F00085B1F7019081892B85B988B1D8019C915E
:10330000892B88B98BB1F6019081892B8BB98AE022
:1033100090E00E94831894B1D7018C918095892305
:1033200084B997B1F80180818095892387B99AB1D2
:10333000D6018C91809589238AB995B1F701808156
:103340008095892385B998B1D8018C91809589237E
:1033500088B99BB1F6018081809589238BB9C09093
:10336000B000E090B1008091B00083608093B00025
:1033700082E08093B1000091B20080E090E039C01B
:103380002091B200201B820F911D020FF3B0F9149F
:1033900009F04DC096B0981409F049C029B127151D
:1033A00009F045C024C0212F30E0A901440F551F6A
:1033B000F501E40FF51F608171816115710599F4C4
:1033C0004C0F5D1FDA0191964D915C919297DA0155
:1033D0004C912C0F3D1FD90151962C9151974223AE
:1033E00011F4918380831F5F28851217E0F2892CE6
:1033F0009F2C2E853F858217930710F2C092B00054
:10340000E092B10020E00FC0E22FF0E0EE0FFF1FCE
:10341000EA0DFB1D80819181009721F48E859F85A7
:10342000918380832F5F8885281770F305C0F3B0E0
:1034300096B079B010E0D8CFCDB7DEB7EDE00C9400
:103440001221EF92FF920F931F93CF93DF93FC0112
:103450009B0100917C0010917A00E7B0F8B0809158
:103460007A0086FDFCCF80E00AC0A82FB0E0AA0F4A
:10347000BB1FA20FB31F11961C921E928F5F9085E7
:10348000891798F397B182A18095892387B998B15C
:1034900082A18095892388B987E880937A0070E0BB
:1034A00029C0DF01A60FB11D51968C915197806400
:1034B00080937C0080917A00806480937A00809170
:1034C0007A0086FDFCCFA62FB0E0AA0FBB1FA20F8B
:1034D000B31F40917800509179008D919C91119784
:1034E000840F951F11969C938E936F5F808568174C
:1034F000C0F27F5F81A1781710F460E0F7CF40E061
:1035000014C0C42FD0E0CC0FDD1FC20FD31F61A1A8
:1035100070E0CB0195958795A881B9818A0F9B1F93
:103520000E948820798368834F5F8085481748F31D
:1035300000937C0010937A00F8B8E7B8CDB7DEB7F7
:10354000E6E00C941921A0E2B0E0E9EAFAE10C947B
:10355000FC208C017B01D42E842F8150823018F402
:10356000C8010E94CD18D80150968C91509788239D
:1035700089F4C801B7010E943A19C8010E94B8181D
:10358000BD2DB230D9F5C801BE016F5F7F4F0E94DB
:103590003A1910C0C801B7010E94211AC8010E943F
:1035A000B818ED2DE23051F5C801BE016F5F7F4FB5
:1035B0000E94211A60E0AE014F5F5F4F1BC0862F53
:1035C00090E0880F991FF701E80FF91F840F951FEE
:1035D000D8011E962D913C911F97DC018D919C91F5
:1035E0001197281B390B80819181820F931F918342
:1035F00080836F5FF8018085681708F3A096E7E085
:103600000C9418218F929F92AF92BF92CF92DF922B
:10361000FF920F931F93CF93DF93EC01C62E072FDA
:10362000F42E423011F0FF2051F48C819D810097DF
:1036300009F4A0C08E819F81009709F49BC08F2D53
:103640008150823050F488819981009709F492C0AA
:103650008A819B81009709F48DC0CE016C2D702F5B
:103660004F2D0E94A31AAC2CB02E00E010E088244D
:1036700099247AC08F2D813059F4EA81FB81E00FC3
:10368000F11FC080D180E881F981E00FF11F0DC0EA
:103690008C819D81FF2061F4EE81FF81E00FF11F9D
:1036A000C080D180800F911FFC01408151812BC0CF
:1036B000800F911FFC0180819181E881F981E00FE9
:1036C000F11F40815181CE84DF848417950710F467
:1036D000A60104C04C0D5D1D481B590BEE81FF81F6
:1036E000E00FF11F80819181EA81FB81E00FF11FE2
:1036F00020813181CE84DF848217930720F0C20EAF
:10370000D31EC81AD90AC41AD50AD1F0F5016081AE
:10371000718180E090E09A0140E050E0621B730B01
:10372000840B950B28EE33E040E050E00E946C20C3
:10373000960140E050E00E94D22037FD0AC002C04E
:1037400020E030E0F3E0293E3F072CF028EE33E0A4
:1037500002C020E030E0F501219331935F0108942D
:10376000811C911C0E5F1F4F888590E0881699067A
:103770000CF480CFDF91CF911F910F91FF90DF90DC
:10378000CF90BF90AF909F908F900895A5E0B0E04C
:10379000ECECFBE10C94F1204C01C62EE72E2D83BE
:1037A0000E94021BD40118964C901897DE2C642DB1
:1037B00070E080E090E028EE33E040E050E00E94CE
:1037C0006C2069837A838B839C83EE24FF2487019A
:1037D00066247724882499245401552436C0F601A0
:1037E0003081218142E0242E312CC20CD31CC9012E
:1037F000492F582F1A012D81222329F088EE93E0BA
:10380000821993091C0199EC291631042CF4A3E3C5
:103810002A16310494F002C055245394B10188272C
:1038200077FD8095982FA80197010E946C20860E45
:10383000971EA81EB91E620C731C88EE93E0A0E0D0
:10384000B0E0E80EF91E0A1F1B1F89819A81AB8127
:10385000BC81E816F9060A071B0709F65520F1F4A2
:10386000552408944108510824EF31E0429EC001DC
:10387000439E900D529E900D112420918D02309107
:103880008E0228173907B4F088EE93E0489E900125
:10389000499E300D589E300D11240EC0930140E01A
:1038A00050E0C501B4010E94B02020938D023093F6
:1038B0008E0202C020E030E0C9012596E2E10C94BE
:1038C0000D21A7E6B0E0E7E6FCE10C94F1208C01C5
:1038D0004B016A01A6962FAFA697DA018D919C91B4
:1038E00011970097E9F4F801808590E0880F991FFF
:1038F0000E944821D60111969C938E93009709F45B
:10390000E2C0FC0180E090E003C0119211920196A8
:10391000D80118962C91189730E082179307ACF3D2
:10392000F40180819181009789F0EE24FF245E01EB
:103930000894A11CB11CB1E46B2E712C6C0E7D1E81
:10394000A1E24A2E512C4C0E5D1E23C0D8011896C0
:103950008C9190E0880F991F0E944821F401918377
:103960008083009709F4AFC0FC0180E090E0D801AB
:1039700007C01E962D913C911F972193319301967C
:1039800018962C91189730E08217930794F38D01C5
:10399000CCCFC801B501A6964FADA6970E94A31A39
:1039A000D80118968C911897E82FF0E0A596FFAFF4
:1039B000EEAFA5971301F501A3965FAE4EAEA397A8
:1039C000930140E050E0A8965FAE4EAEA89737C096
:1039D000E114F10461F0A896AEADBFADA8976D916A
:1039E0007C911197808191816817790760F48081BB
:1039F0009181A896AEADBFADA89711969C938E937A
:103A0000E114F10449F0D9016D917C911197808105
:103A100091818617970728F480819181D9018D9330
:103A20009C934F5F5F4F2E5F3F4F3296A8968EADAF
:103A30009FADA8970296A8969FAF8EAFA897A59620
:103A4000AEADBFADA5974A175B0714F20894E11C11
:103A5000F11CBAE0EB16F10409F09BCF80E090E096
:103A60002CC0F101419151911F01BC01660F771FDC
:103A7000D601ED91FC911197E60FF71F208131815E
:103A80002417350710F451834083A396EEADFFADA4
:103A9000A39741915191A396FFAFEEAFA397D401A5
:103AA000ED91FC911197E60FF71F208131814217AC
:103AB000530710F4518340830196F801208530E0CC
:103AC0008217930774F2C959DF4FE2E10C940D217C
:103AD0001F93CF93DF93EC01162F862F81508230F6
:103AE00058F4AE014E5F5F4FCE01BE0121E00E944F
:103AF000611C123019F00CC0662351F4BE016C5FDA
:103B00007F4FAE014A5F5F4FCE0120E00E94611CF3
:103B1000DF91CF911F910895CF93DF93EC018A81BC
:103B20009B81009711F00E94DD218E819F8100977B
:103B300011F00E94DD2188819981009711F00E9487
:103B4000DD218C819D81009711F00E94DD21DF91A4
:103B5000CF9108955058BB27AA270ED09AC18BD178
:103B600030F090D120F031F49F3F11F41EF45BC18E
:103B70000EF4E095E7FB51C1E92F9CD180F3BA1711
:103B8000620773078407950718F071F49EF5B4C1B6
:103B90000EF4E0950B2EBA2FA02D0B01B901900168
:103BA0000C01CA01A0011124FF27591B99F0593FAC
:103BB00050F4503E68F11A16F040A22F232F342FF4
:103BC0004427585FF3CF469537952795A795F04042
:103BD0005395C9F77EF41F16BA0B620B730B840B57
:103BE000BAF09150A1F0FF0FBB1F661F771F881F0F
:103BF000C2F70EC0BA0F621F731F841F48F4879567
:103C000077956795B795F7959E3F08F0B3CF939555
:103C1000880F08F09927EE0F979587950895D9D0CA
:103C200008F481E008950CD034C12CD140F023D1A8
:103C300030F021F45F3F19F0F0C051115EC1F3C0C4
:103C400039D198F39923C9F35523B1F3951B550B3B
:103C5000BB27AA2762177307840738F09F5F5F4F5F
:103C6000220F331F441FAA1FA9F333D00E2E3AF0A0
:103C7000E0E830D091505040E695001CCAF729D0BA
:103C8000FE2F27D0660F771F881FBB1F2617370709
:103C90004807AB07B0E809F0BB0B802DBF01FF2739
:103CA00093585F4F2AF09E3F510568F0B6C025C17A
:103CB0005F3FECF3983EDCF3869577956795B79573
:103CC000F7959F5FC9F7880F911D9695879597F98E
:103CD0000895E1E0660F771F881FBB1F6217730707
:103CE0008407BA0720F0621B730B840BBA0BEE1F1C
:103CF00088F7E095089519F40EF08FC0FDC093C0C9
:103D0000E1D0C8F39638C0F707F80F92E8942BE398
:103D10003AEA48EB5FE775D10F920F920F924DB7D9
:103D20005EB70F922DD1E8E6F0E080D04F915F9121
:103D3000EF91FF91E595EE1FFF1F49F0FE57E068F8
:103D40004427EE0F441FFA95E1F74195550BE4D057
:103D50000F9007FED8C00895E89409C097FB3EF481
:103D600090958095709561957F4F8F4F9F4F9923C8
:103D7000A9F0F92F96E9BB279395F6958795779546
:103D80006795B795F111F8CFFAF4BB0F11F460FF06
:103D90001BC06F5F7F4F8F4F9F4F16C0882311F05E
:103DA00096E911C0772321F09EE8872F762F05C072
:103DB000662371F096E8862F70E060E02AF09A950D
:103DC000660F771F881FDAF7880F9695879597F902
:103DD0000895990F0008550FAA0BE0E8FEEF16169C
:103DE0001706E807F907C0F012161306E407F507EF
:103DF00098F0621B730B840B950B39F40A2661F063
:103E0000232B242B252B21F408950A2609F4A14005
:103E1000A6958FEF811D811D089597F99F6780E812
:103E200070E060E008959FEF80EC0895DF93CF93FA
:103E30001F930F93FF92EF92DF927B018C016894A6
:103E400005C0DA2EEF01DBD0FE01E894A5912591A3
:103E5000359145915591AEF3EF018EDEFE0197014C
:103E6000A801DA9479F7DF90EF90FF900F911F91FE
:103E7000CF91DF91089500240A94161617061806AC
:103E80000906089500240A9412161306140605065E
:103E90000895092E0394000C11F4882352F0BB0FEF
:103EA00040F4BF2B11F460FF04C06F5F7F4F8F4F52
:103EB0009F4F089557FD9058440F551F59F05F3F8D
:103EC00071F04795880F97FB991F61F09F3F79F03C
:103ED00087950895121613061406551FF2CF4695BE
:103EE000F1DF08C0161617061806991FF1CF869540
:103EF0007105610508940895E894BB276627772724
:103F0000CB0197F908959B01AC0160E070E080E877
:103F10009FE389CE82CFCAC0D5DFE8F39923D9F3D6
:103F2000940F511DBBF39150504094F059F08823E9
:103F300032F0660F771F881F91505040C1F79E3FA7
:103F4000510544F7880F911D9695879597F9089527
:103F50005F3FACF0983E9CF0BB27869577956795C0
:103F6000B79508F4B1609395C1F7BB0F58F711F4FA
:103F700060FFE8CF6F5F7F4F8F4F9F4FE3CFBDCF85
:103F8000FA01DC01AA0FBB1F9B01AC01BF5728F44B
:103F900022273327442750781FC0B75188F4AB2F0E
:103FA0000024469537952795011CA395D2F3002050
:103FB00069F0220F331F441FB395DAF30DD0CACD39
:103FC00061307105A0E88A07B94630F49B01AC0165
:103FD0006627772788279078309621F020833183D1
:103FE0004283538308950BD054CF45DF28F04ADF36
:103FF00018F0952309F011CF16CF11247ECF5ADF88
:10400000A0F3959FD1F3950F50E0551F629FF001EB
:10401000729FBB27F00DB11D639FAA27F00DB11D44
:10402000AA1F649F6627B00DA11D661F829F2227CD
:10403000B00DA11D621F739FB00DA11D621F839F54
:10404000A00D611D221F749F3327A00D611D231F2A
:10405000849F600D211D822F762F6A2F11249F5778
:1040600050408AF0E1F088234AF0EE0FFF1FBB1F9B
:10407000661F771F881F91505040A9F79E3F51053A
:1040800070F0CBCE3ACF5F3FECF3983EDCF38695F1
:1040900077956795B795F795E7959F5FC1F7FE2BE5
:1040A000880F911D9695879597F908959F3F31F058
:1040B000915020F4879577956795B795880F911D56
:1040C0009695879597F90895B7FF0C9428210E943B
:1040D0002821821B930B0895DB018F939F930E94ED
:1040E0002821BF91AF91A29F800D911DA39F900D9C
:1040F000B29F900D11240895991B79E004C0991F77
:10410000961708F0961B881F7A95C9F78095089531
:10411000AA1BBB1B51E107C0AA1FBB1FA617B707ED
:1041200010F0A61BB70B881F991F5A95A9F7809509
:104130009095BC01CD01089597FB072E16F40094CD
:1041400007D077FD09D00E94882007FC05D03EF4F7
:10415000909581959F4F0895709561957F4F089533
:10416000A1E21A2EAA1BBB1BFD010DC0AA1FBB1F7B
:10417000EE1FFF1FA217B307E407F50720F0A21BED
:10418000B30BE40BF50B661F771F881F991F1A945A
:1041900069F760957095809590959B01AC01BD0184
:1041A000CF010895052E97FB1EF400940E94E9208C
:1041B00057FD07D00E94B02007FC03D04EF40C94AA
:1041C000E92050954095309521953F4F4F4F5F4FD7
:1041D000089590958095709561957F4F8F4F9F4F73
:1041E00008952F923F924F925F926F927F928F929B
:1041F0009F92AF92BF92CF92DF92EF92FF920F9376
:104200001F93CF93DF93CDB7DEB7CA1BDB0B0FB67F
:10421000F894DEBF0FBECDBF09942A88398848883C
:104220005F846E847D848C849B84AA84B984C884D2
:10423000DF80EE80FD800C811B81AA81B981CE0FC9
:10424000D11D0FB6F894DEBF0FBECDBFED010895AE
:104250000E943921A59F900DB49F900DA49F800DC1
:10426000911D11240895EE0FFF1F0590F491E02D8C
:104270000994A29FB001B39FC001A39F700D811D3F
:104280001124911DB29F700D811D1124911D08955F
:10429000CF93DF938230910510F482E090E0E091BB
:1042A0009A02F0919B0220E030E0C0E0D0E030972D
:1042B00011F14081518148175907C0F0481759073B
:1042C00061F482819381209719F09B838A832BC0AC
:1042D00090939B0280939A0226C02115310519F014
:1042E0004217530718F49A01BE01DF01EF01028063
:1042F000F381E02DDCCF2115310509F1281B390BA5
:104300002430310590F412968D919C91139761158C
:10431000710521F0FB019383828304C090939B027B
:1043200080939A02FD01329644C0FD01E20FF31F13
:1043300081939193225031092D933C933AC020915F
:10434000980230919902232B41F420912C01309155
:104350002D01309399022093980220912A013091E7
:104360002B012115310541F42DB73EB740912E01A7
:1043700050912F01241B350BE0919802F091990286
:10438000E217F307A0F42E1B3F0B2817390778F02C
:10439000AC014E5F5F4F2417350748F04E0F5F1F8B
:1043A00050939902409398028193919302C0E0E068
:1043B000F0E0CF01DF91CF9108950F931F93CF933A
:1043C000DF93009709F48CC0FC01329713821282AC
:1043D00000919A0210919B020115110581F4208130
:1043E0003181820F931F20919802309199022817F2
:1043F000390779F5F0939902E093980271C0D801DA
:1044000040E050E0AE17BF0750F412962D913C915A
:104410001397AD012115310509F1D901F3CF9D01A4
:10442000DA013383228360817181860F971F82179F
:10443000930769F4EC0128813981260F371F2E5F1D
:104440003F4F318320838A819B8193838283452BD5
:1044500029F4F0939B02E0939A0242C01396FC93D6
:10446000EE931297ED01499159919E01240F351F4A
:10447000E217F30771F480819181840F951F0296F2
:1044800011969C938E938281938113969C938E9325
:104490001297E0E0F0E0D80112968D919C9113976D
:1044A000009719F0F8018C01F6CF8D919C9198013D
:1044B0002E5F3F4F820F931F2091980230919902F7
:1044C0002817390769F4309729F410929B0210924B
:1044D0009A0202C0138212821093990200939802EA
:1044E000DF91CF911F910F91089510E0C2ECD0E0C1
:1044F00004C0FE010E9435212296C43CD107C9F7B1
:04450000F894FFCF5D
:104504000101040400D007F4010F009C01B501CFA0
:1045140001EA0107022602470269028E02B502DEA1
:10452400020A0302080E0F10111200009C02200060
:10453400507265737320410050726573732042009A
:1045440050726573732043004F4E49474F4B4B4F96
:104554000020204D4F44452020004D415A45203134
:104564003A004C46542020524748004C2000205228
:10457400004C45465448414E44004D415A45203173
:10458400005247485448414E440020204D41594F61
:104594004920004D415A4520313A20004C454152B2
:1045A4004E45442E004D415A4520323A004D415A61
:1045B400452032004D415A4520323A200053454CA3
:1045C400454354203A004D312020204D32004D61A6
:1045D4007A6520313A0052554E212121004D617AED
:1045E4006520323A004465736166696F3A00303180
:1045F40020203032004F6E69676F6B6B6F00204D67
:104604006F6465212000204D61796F692000446F3B
:044614006E652E00A1
:00000001FF
